{
  "_format": "hh-sol-artifact-1",
  "contractName": "CrowdFunding",
  "sourceName": "contracts/CrowdFunds.sol",
  "abi": [
    {
      "inputs": [
        {
          "internalType": "uint256",
          "name": "",
          "type": "uint256"
        }
      ],
      "name": "campaigns",
      "outputs": [
        {
          "internalType": "address",
          "name": "owner",
          "type": "address"
        },
        {
          "internalType": "string",
          "name": "titleFunds",
          "type": "string"
        },
        {
          "internalType": "string",
          "name": "desc",
          "type": "string"
        },
        {
          "internalType": "uint256",
          "name": "target",
          "type": "uint256"
        },
        {
          "internalType": "uint256",
          "name": "timeLimit",
          "type": "uint256"
        },
        {
          "internalType": "uint256",
          "name": "amountReceived",
          "type": "uint256"
        },
        {
          "internalType": "string",
          "name": "image",
          "type": "string"
        },
        {
          "internalType": "bool",
          "name": "withdrawan",
          "type": "bool"
        }
      ],
      "stateMutability": "view",
      "type": "function"
    },
    {
      "inputs": [
        {
          "internalType": "address",
          "name": "_owner",
          "type": "address"
        },
        {
          "internalType": "string",
          "name": "_title",
          "type": "string"
        },
        {
          "internalType": "string",
          "name": "_desc",
          "type": "string"
        },
        {
          "internalType": "uint256",
          "name": "_target",
          "type": "uint256"
        },
        {
          "internalType": "uint256",
          "name": "_limit",
          "type": "uint256"
        },
        {
          "internalType": "string",
          "name": "_image",
          "type": "string"
        }
      ],
      "name": "createCampaigner",
      "outputs": [
        {
          "internalType": "uint256",
          "name": "",
          "type": "uint256"
        }
      ],
      "stateMutability": "nonpayable",
      "type": "function"
    },
    {
      "inputs": [
        {
          "internalType": "uint256",
          "name": "_id",
          "type": "uint256"
        }
      ],
      "name": "donateCampaigner",
      "outputs": [],
      "stateMutability": "payable",
      "type": "function"
    },
    {
      "inputs": [],
      "name": "getCampaigners",
      "outputs": [
        {
          "components": [
            {
              "internalType": "address",
              "name": "owner",
              "type": "address"
            },
            {
              "internalType": "string",
              "name": "titleFunds",
              "type": "string"
            },
            {
              "internalType": "string",
              "name": "desc",
              "type": "string"
            },
            {
              "internalType": "uint256",
              "name": "target",
              "type": "uint256"
            },
            {
              "internalType": "uint256",
              "name": "timeLimit",
              "type": "uint256"
            },
            {
              "internalType": "uint256",
              "name": "amountReceived",
              "type": "uint256"
            },
            {
              "internalType": "string",
              "name": "image",
              "type": "string"
            },
            {
              "internalType": "bool",
              "name": "withdrawan",
              "type": "bool"
            },
            {
              "internalType": "address[]",
              "name": "contributors",
              "type": "address[]"
            },
            {
              "internalType": "uint256[]",
              "name": "contributions",
              "type": "uint256[]"
            }
          ],
          "internalType": "struct CrowdFunding.Campaign[]",
          "name": "",
          "type": "tuple[]"
        }
      ],
      "stateMutability": "view",
      "type": "function"
    },
    {
      "inputs": [],
      "name": "getContractBalance",
      "outputs": [
        {
          "internalType": "uint256",
          "name": "",
          "type": "uint256"
        }
      ],
      "stateMutability": "view",
      "type": "function"
    },
    {
      "inputs": [
        {
          "internalType": "uint256",
          "name": "_id",
          "type": "uint256"
        }
      ],
      "name": "getContributors",
      "outputs": [
        {
          "internalType": "address[]",
          "name": "",
          "type": "address[]"
        },
        {
          "internalType": "uint256[]",
          "name": "",
          "type": "uint256[]"
        }
      ],
      "stateMutability": "view",
      "type": "function"
    },
    {
      "inputs": [],
      "name": "numberOfCampaigns",
      "outputs": [
        {
          "internalType": "uint256",
          "name": "",
          "type": "uint256"
        }
      ],
      "stateMutability": "view",
      "type": "function"
    },
    {
      "inputs": [
        {
          "internalType": "uint256",
          "name": "_id",
          "type": "uint256"
        }
      ],
      "name": "withdraw",
      "outputs": [],
      "stateMutability": "nonpayable",
      "type": "function"
    }
  ],
  "bytecode": "0x60806040526000600155348015601457600080fd5b50611f44806100246000396000f3fe60806040526004361061007b5760003560e01c8063481b80991161004e578063481b8099146101565780636f9fb98a14610172578063a34a56e31461019d578063b9849211146101da5761007b565b806307ca140d14610080578063141961bc146100ab5780632e1a7d4d146100ef5780633c1ab00f14610118575b600080fd5b34801561008c57600080fd5b50610095610205565b6040516100a29190610ed5565b60405180910390f35b3480156100b757600080fd5b506100d260048036038101906100cd9190610f30565b61020b565b6040516100e6989796959493929190611049565b60405180910390f35b3480156100fb57600080fd5b5061011660048036038101906101119190610f30565b610418565b005b34801561012457600080fd5b5061013f600480360381019061013a9190610f30565b6106aa565b60405161014d929190611258565b60405180910390f35b610170600480360381019061016b9190610f30565b6107ba565b005b34801561017e57600080fd5b5061018761091a565b6040516101949190610ed5565b60405180910390f35b3480156101a957600080fd5b506101c460048036038101906101bf91906113f0565b610922565b6040516101d19190610ed5565b60405180910390f35b3480156101e657600080fd5b506101ef610a66565b6040516101fc91906117c0565b60405180910390f35b60015481565b60006020528060005260406000206000915090508060000160009054906101000a900473ffffffffffffffffffffffffffffffffffffffff169080600101805461025490611811565b80601f016020809104026020016040519081016040528092919081815260200182805461028090611811565b80156102cd5780601f106102a2576101008083540402835291602001916102cd565b820191906000526020600020905b8154815290600101906020018083116102b057829003601f168201915b5050505050908060020180546102e290611811565b80601f016020809104026020016040519081016040528092919081815260200182805461030e90611811565b801561035b5780601f106103305761010080835404028352916020019161035b565b820191906000526020600020905b81548152906001019060200180831161033e57829003601f168201915b50505050509080600301549080600401549080600501549080600601805461038290611811565b80601f01602080910402602001604051908101604052809291908181526020018280546103ae90611811565b80156103fb5780601f106103d0576101008083540402835291602001916103fb565b820191906000526020600020905b8154815290600101906020018083116103de57829003601f168201915b5050505050908060070160009054906101000a900460ff16905088565b600080600083815260200190815260200160002090508060000160009054906101000a900473ffffffffffffffffffffffffffffffffffffffff1673ffffffffffffffffffffffffffffffffffffffff163373ffffffffffffffffffffffffffffffffffffffff16146104c0576040517f08c379a00000000000000000000000000000000000000000000000000000000081526004016104b7906118b4565b60405180910390fd5b8060070160009054906101000a900460ff1615610512576040517f08c379a000000000000000000000000000000000000000000000000000000000815260040161050990611920565b60405180910390fd5b8060040154421015610559576040517f08c379a00000000000000000000000000000000000000000000000000000000081526004016105509061198c565b60405180910390fd5b8060030154816005015410156105a4576040517f08c379a000000000000000000000000000000000000000000000000000000000815260040161059b906119f8565b60405180910390fd5b6000816005015490506000826005018190555060018260070160006101000a81548160ff02191690831515021790555060008260000160009054906101000a900473ffffffffffffffffffffffffffffffffffffffff1673ffffffffffffffffffffffffffffffffffffffff168260405161061e90611a49565b60006040518083038185875af1925050503d806000811461065b576040519150601f19603f3d011682016040523d82523d6000602084013e610660565b606091505b50509050806106a4576040517f08c379a000000000000000000000000000000000000000000000000000000000815260040161069b90611ad0565b60405180910390fd5b50505050565b6060806000808481526020019081526020016000206008016000808581526020019081526020016000206009018180548060200260200160405190810160405280929190818152602001828054801561075857602002820191906000526020600020905b8160009054906101000a900473ffffffffffffffffffffffffffffffffffffffff1673ffffffffffffffffffffffffffffffffffffffff168152602001906001019080831161070e575b50505050509150808054806020026020016040519081016040528092919081815260200182805480156107aa57602002820191906000526020600020905b815481526020019060010190808311610796575b5050505050905091509150915091565b60003490506000806000848152602001908152602001600020905080600801339080600181540180825580915050600190039060005260206000200160009091909190916101000a81548173ffffffffffffffffffffffffffffffffffffffff021916908373ffffffffffffffffffffffffffffffffffffffff1602179055508060090182908060018154018082558091505060019003906000526020600020016000909190919091505560008160000160009054906101000a900473ffffffffffffffffffffffffffffffffffffffff1673ffffffffffffffffffffffffffffffffffffffff16836040516108af90611a49565b60006040518083038185875af1925050503d80600081146108ec576040519150601f19603f3d011682016040523d82523d6000602084013e6108f1565b606091505b5050905080156109145782826005015461090b9190611b1f565b82600501819055505b50505050565b600047905090565b6000806000806001548152602001908152602001600020905042816004015410610981576040517f08c379a000000000000000000000000000000000000000000000000000000000815260040161097890611bc5565b60405180910390fd5b878160000160006101000a81548173ffffffffffffffffffffffffffffffffffffffff021916908373ffffffffffffffffffffffffffffffffffffffff160217905550868160010190816109d59190611d91565b50858160020190816109e79190611d91565b508481600301819055508381600401819055506000816005018190555082816006019081610a159190611d91565b5060008160070160006101000a81548160ff02191690831515021790555060016000815480929190610a4690611e63565b919050555060018054610a599190611eab565b9150509695505050505050565b6060600060015467ffffffffffffffff811115610a8657610a856112c5565b5b604051908082528060200260200182016040528015610abf57816020015b610aac610e51565b815260200190600190039081610aa45790505b50905060005b600154811015610e49576000806000838152602001908152602001600020905080604051806101400160405290816000820160009054906101000a900473ffffffffffffffffffffffffffffffffffffffff1673ffffffffffffffffffffffffffffffffffffffff1673ffffffffffffffffffffffffffffffffffffffff168152602001600182018054610b5890611811565b80601f0160208091040260200160405190810160405280929190818152602001828054610b8490611811565b8015610bd15780601f10610ba657610100808354040283529160200191610bd1565b820191906000526020600020905b815481529060010190602001808311610bb457829003601f168201915b50505050508152602001600282018054610bea90611811565b80601f0160208091040260200160405190810160405280929190818152602001828054610c1690611811565b8015610c635780601f10610c3857610100808354040283529160200191610c63565b820191906000526020600020905b815481529060010190602001808311610c4657829003601f168201915b50505050508152602001600382015481526020016004820154815260200160058201548152602001600682018054610c9a90611811565b80601f0160208091040260200160405190810160405280929190818152602001828054610cc690611811565b8015610d135780601f10610ce857610100808354040283529160200191610d13565b820191906000526020600020905b815481529060010190602001808311610cf657829003601f168201915b505050505081526020016007820160009054906101000a900460ff1615151515815260200160088201805480602002602001604051908101604052809291908181526020018280548015610dbc57602002820191906000526020600020905b8160009054906101000a900473ffffffffffffffffffffffffffffffffffffffff1673ffffffffffffffffffffffffffffffffffffffff1681526020019060010190808311610d72575b5050505050815260200160098201805480602002602001604051908101604052809291908181526020018280548015610e1457602002820191906000526020600020905b815481526020019060010190808311610e00575b505050505081525050838381518110610e3057610e2f611edf565b5b6020026020010181905250508080600101915050610ac5565b508091505090565b604051806101400160405280600073ffffffffffffffffffffffffffffffffffffffff16815260200160608152602001606081526020016000815260200160008152602001600081526020016060815260200160001515815260200160608152602001606081525090565b6000819050919050565b610ecf81610ebc565b82525050565b6000602082019050610eea6000830184610ec6565b92915050565b6000604051905090565b600080fd5b600080fd5b610f0d81610ebc565b8114610f1857600080fd5b50565b600081359050610f2a81610f04565b92915050565b600060208284031215610f4657610f45610efa565b5b6000610f5484828501610f1b565b91505092915050565b600073ffffffffffffffffffffffffffffffffffffffff82169050919050565b6000610f8882610f5d565b9050919050565b610f9881610f7d565b82525050565b600081519050919050565b600082825260208201905092915050565b60005b83811015610fd8578082015181840152602081019050610fbd565b60008484015250505050565b6000601f19601f8301169050919050565b600061100082610f9e565b61100a8185610fa9565b935061101a818560208601610fba565b61102381610fe4565b840191505092915050565b60008115159050919050565b6110438161102e565b82525050565b60006101008201905061105f600083018b610f8f565b8181036020830152611071818a610ff5565b905081810360408301526110858189610ff5565b90506110946060830188610ec6565b6110a16080830187610ec6565b6110ae60a0830186610ec6565b81810360c08301526110c08185610ff5565b90506110cf60e083018461103a565b9998505050505050505050565b600081519050919050565b600082825260208201905092915050565b6000819050602082019050919050565b61111181610f7d565b82525050565b60006111238383611108565b60208301905092915050565b6000602082019050919050565b6000611147826110dc565b61115181856110e7565b935061115c836110f8565b8060005b8381101561118d5781516111748882611117565b975061117f8361112f565b925050600181019050611160565b5085935050505092915050565b600081519050919050565b600082825260208201905092915050565b6000819050602082019050919050565b6111cf81610ebc565b82525050565b60006111e183836111c6565b60208301905092915050565b6000602082019050919050565b60006112058261119a565b61120f81856111a5565b935061121a836111b6565b8060005b8381101561124b57815161123288826111d5565b975061123d836111ed565b92505060018101905061121e565b5085935050505092915050565b60006040820190508181036000830152611272818561113c565b9050818103602083015261128681846111fa565b90509392505050565b61129881610f7d565b81146112a357600080fd5b50565b6000813590506112b58161128f565b92915050565b600080fd5b600080fd5b7f4e487b7100000000000000000000000000000000000000000000000000000000600052604160045260246000fd5b6112fd82610fe4565b810181811067ffffffffffffffff8211171561131c5761131b6112c5565b5b80604052505050565b600061132f610ef0565b905061133b82826112f4565b919050565b600067ffffffffffffffff82111561135b5761135a6112c5565b5b61136482610fe4565b9050602081019050919050565b82818337600083830152505050565b600061139361138e84611340565b611325565b9050828152602081018484840111156113af576113ae6112c0565b5b6113ba848285611371565b509392505050565b600082601f8301126113d7576113d66112bb565b5b81356113e7848260208601611380565b91505092915050565b60008060008060008060c0878903121561140d5761140c610efa565b5b600061141b89828a016112a6565b965050602087013567ffffffffffffffff81111561143c5761143b610eff565b5b61144889828a016113c2565b955050604087013567ffffffffffffffff81111561146957611468610eff565b5b61147589828a016113c2565b945050606061148689828a01610f1b565b935050608061149789828a01610f1b565b92505060a087013567ffffffffffffffff8111156114b8576114b7610eff565b5b6114c489828a016113c2565b9150509295509295509295565b600081519050919050565b600082825260208201905092915050565b6000819050602082019050919050565b600082825260208201905092915050565b600061151982610f9e565b61152381856114fd565b9350611533818560208601610fba565b61153c81610fe4565b840191505092915050565b6115508161102e565b82525050565b600082825260208201905092915050565b6000611572826110dc565b61157c8185611556565b9350611587836110f8565b8060005b838110156115b857815161159f8882611117565b97506115aa8361112f565b92505060018101905061158b565b5085935050505092915050565b600082825260208201905092915050565b60006115e18261119a565b6115eb81856115c5565b93506115f6836111b6565b8060005b8381101561162757815161160e88826111d5565b9750611619836111ed565b9250506001810190506115fa565b5085935050505092915050565b60006101408301600083015161164d6000860182611108565b5060208301518482036020860152611665828261150e565b9150506040830151848203604086015261167f828261150e565b915050606083015161169460608601826111c6565b5060808301516116a760808601826111c6565b5060a08301516116ba60a08601826111c6565b5060c083015184820360c08601526116d2828261150e565b91505060e08301516116e760e0860182611547565b506101008301518482036101008601526117018282611567565b91505061012083015184820361012086015261171d82826115d6565b9150508091505092915050565b60006117368383611634565b905092915050565b6000602082019050919050565b6000611756826114d1565b61176081856114dc565b935083602082028501611772856114ed565b8060005b858110156117ae578484038952815161178f858261172a565b945061179a8361173e565b925060208a01995050600181019050611776565b50829750879550505050505092915050565b600060208201905081810360008301526117da818461174b565b905092915050565b7f4e487b7100000000000000000000000000000000000000000000000000000000600052602260045260246000fd5b6000600282049050600182168061182957607f821691505b60208210810361183c5761183b6117e2565b5b50919050565b7f4f6e6c79207468652063616d706169676e206f776e65722063616e207769746860008201527f6472617720746865722066756e64732e00000000000000000000000000000000602082015250565b600061189e603083610fa9565b91506118a982611842565b604082019050919050565b600060208201905081810360008301526118cd81611891565b9050919050565b7f416d6f756e742077697468647261776e20616c72656164790000000000000000600082015250565b600061190a601883610fa9565b9150611915826118d4565b602082019050919050565b60006020820190508181036000830152611939816118fd565b9050919050565b7f74696d656c696d6974206e6f742072656163686564207965742e000000000000600082015250565b6000611976601a83610fa9565b915061198182611940565b602082019050919050565b600060208201905081810360008301526119a581611969565b9050919050565b7f43616d706169676e20746172676574206e6f74206d65742e0000000000000000600082015250565b60006119e2601883610fa9565b91506119ed826119ac565b602082019050919050565b60006020820190508181036000830152611a11816119d5565b9050919050565b600081905092915050565b50565b6000611a33600083611a18565b9150611a3e82611a23565b600082019050919050565b6000611a5482611a26565b9150819050919050565b7f556e61626c6520746f2073656e642066756e647320746f207468652063616d7060008201527f6169676e00000000000000000000000000000000000000000000000000000000602082015250565b6000611aba602483610fa9565b9150611ac582611a5e565b604082019050919050565b60006020820190508181036000830152611ae981611aad565b9050919050565b7f4e487b7100000000000000000000000000000000000000000000000000000000600052601160045260246000fd5b6000611b2a82610ebc565b9150611b3583610ebc565b9250828201905080821115611b4d57611b4c611af0565b5b92915050565b7f54686520646561646c696e652073686f756c642062652061206675747572652060008201527f74696d65206c696d697400000000000000000000000000000000000000000000602082015250565b6000611baf602a83610fa9565b9150611bba82611b53565b604082019050919050565b60006020820190508181036000830152611bde81611ba2565b9050919050565b60008190508160005260206000209050919050565b60006020601f8301049050919050565b600082821b905092915050565b600060088302611c477fffffffffffffffffffffffffffffffffffffffffffffffffffffffffffffffff82611c0a565b611c518683611c0a565b95508019841693508086168417925050509392505050565b6000819050919050565b6000611c8e611c89611c8484610ebc565b611c69565b610ebc565b9050919050565b6000819050919050565b611ca883611c73565b611cbc611cb482611c95565b848454611c17565b825550505050565b600090565b611cd1611cc4565b611cdc818484611c9f565b505050565b5b81811015611d0057611cf5600082611cc9565b600181019050611ce2565b5050565b601f821115611d4557611d1681611be5565b611d1f84611bfa565b81016020851015611d2e578190505b611d42611d3a85611bfa565b830182611ce1565b50505b505050565b600082821c905092915050565b6000611d6860001984600802611d4a565b1980831691505092915050565b6000611d818383611d57565b9150826002028217905092915050565b611d9a82610f9e565b67ffffffffffffffff811115611db357611db26112c5565b5b611dbd8254611811565b611dc8828285611d04565b600060209050601f831160018114611dfb5760008415611de9578287015190505b611df38582611d75565b865550611e5b565b601f198416611e0986611be5565b60005b82811015611e3157848901518255600182019150602085019450602081019050611e0c565b86831015611e4e5784890151611e4a601f891682611d57565b8355505b6001600288020188555050505b505050505050565b6000611e6e82610ebc565b91507fffffffffffffffffffffffffffffffffffffffffffffffffffffffffffffffff8203611ea057611e9f611af0565b5b600182019050919050565b6000611eb682610ebc565b9150611ec183610ebc565b9250828203905081811115611ed957611ed8611af0565b5b92915050565b7f4e487b7100000000000000000000000000000000000000000000000000000000600052603260045260246000fdfea2646970667358221220487efcda0367e561b96134de6f31e3d06851c7a70f8dde4c832f8781eac5494964736f6c634300081b0033",
  "linkReferences": {},
  "deployedLinkReferences": {}
}